{
  "contractName": "CarMarket",
  "abi": [
    {
      "constant": true,
      "inputs": [],
      "name": "carDealer",
      "outputs": [
        {
          "name": "",
          "type": "address"
        }
      ],
      "payable": false,
      "stateMutability": "view",
      "type": "function"
    },
    {
      "constant": true,
      "inputs": [],
      "name": "carCount",
      "outputs": [
        {
          "name": "",
          "type": "int256"
        }
      ],
      "payable": false,
      "stateMutability": "view",
      "type": "function"
    },
    {
      "constant": true,
      "inputs": [
        {
          "name": "",
          "type": "address"
        }
      ],
      "name": "carOwner",
      "outputs": [
        {
          "name": "",
          "type": "uint256"
        }
      ],
      "payable": false,
      "stateMutability": "view",
      "type": "function"
    },
    {
      "constant": true,
      "inputs": [
        {
          "name": "",
          "type": "address"
        }
      ],
      "name": "isCarOwner",
      "outputs": [
        {
          "name": "",
          "type": "uint8"
        }
      ],
      "payable": false,
      "stateMutability": "view",
      "type": "function"
    },
    {
      "constant": true,
      "inputs": [],
      "name": "MAX_CARS_PER_PERSON",
      "outputs": [
        {
          "name": "",
          "type": "uint8"
        }
      ],
      "payable": false,
      "stateMutability": "view",
      "type": "function"
    },
    {
      "constant": true,
      "inputs": [
        {
          "name": "",
          "type": "uint256"
        }
      ],
      "name": "carOwners",
      "outputs": [
        {
          "name": "addr",
          "type": "address"
        },
        {
          "name": "discount",
          "type": "uint256"
        }
      ],
      "payable": false,
      "stateMutability": "view",
      "type": "function"
    },
    {
      "constant": true,
      "inputs": [
        {
          "name": "",
          "type": "uint256"
        }
      ],
      "name": "cars",
      "outputs": [
        {
          "name": "price",
          "type": "uint256"
        },
        {
          "name": "manufacturer",
          "type": "string"
        },
        {
          "name": "petrolConsumptionPerMile",
          "type": "uint256"
        },
        {
          "name": "signature",
          "type": "bytes32"
        },
        {
          "name": "presence",
          "type": "bool"
        }
      ],
      "payable": false,
      "stateMutability": "view",
      "type": "function"
    },
    {
      "inputs": [],
      "payable": false,
      "stateMutability": "nonpayable",
      "type": "constructor"
    },
    {
      "anonymous": false,
      "inputs": [
        {
          "indexed": false,
          "name": "carDealer",
          "type": "address"
        },
        {
          "indexed": false,
          "name": "carID",
          "type": "uint256"
        }
      ],
      "name": "AddCar",
      "type": "event"
    },
    {
      "anonymous": false,
      "inputs": [
        {
          "indexed": false,
          "name": "carOwnerID",
          "type": "uint256"
        },
        {
          "indexed": false,
          "name": "carOwnerAddress",
          "type": "address"
        }
      ],
      "name": "NewCarOwner",
      "type": "event"
    },
    {
      "anonymous": false,
      "inputs": [
        {
          "indexed": false,
          "name": "carID",
          "type": "uint256"
        },
        {
          "indexed": false,
          "name": "carOwnerID",
          "type": "uint256"
        }
      ],
      "name": "BuyCar",
      "type": "event"
    },
    {
      "anonymous": false,
      "inputs": [
        {
          "indexed": false,
          "name": "carOwnerID",
          "type": "uint256"
        },
        {
          "indexed": false,
          "name": "discount",
          "type": "uint256"
        }
      ],
      "name": "SetDiscount",
      "type": "event"
    },
    {
      "anonymous": false,
      "inputs": [
        {
          "indexed": false,
          "name": "carID",
          "type": "uint256"
        },
        {
          "indexed": false,
          "name": "presence",
          "type": "bool"
        }
      ],
      "name": "EditPresence",
      "type": "event"
    },
    {
      "constant": false,
      "inputs": [
        {
          "name": "_carID",
          "type": "uint256"
        }
      ],
      "name": "buyCar",
      "outputs": [],
      "payable": true,
      "stateMutability": "payable",
      "type": "function"
    },
    {
      "constant": false,
      "inputs": [
        {
          "name": "_price",
          "type": "uint256"
        },
        {
          "name": "_manufacturer",
          "type": "string"
        },
        {
          "name": "_model",
          "type": "string"
        },
        {
          "name": "_config",
          "type": "uint256"
        },
        {
          "name": "_petrolConsumptionPerMile",
          "type": "uint256"
        },
        {
          "name": "_signature",
          "type": "bytes32"
        },
        {
          "name": "_presence",
          "type": "bool"
        }
      ],
      "name": "addCar",
      "outputs": [
        {
          "name": "",
          "type": "uint256"
        }
      ],
      "payable": false,
      "stateMutability": "nonpayable",
      "type": "function"
    },
    {
      "constant": false,
      "inputs": [],
      "name": "releaseETH",
      "outputs": [
        {
          "name": "",
          "type": "bool"
        }
      ],
      "payable": false,
      "stateMutability": "nonpayable",
      "type": "function"
    },
    {
      "constant": false,
      "inputs": [
        {
          "name": "_carOwnerID",
          "type": "uint256"
        },
        {
          "name": "_discount",
          "type": "uint256"
        }
      ],
      "name": "setCarOwnerDiscount",
      "outputs": [
        {
          "name": "",
          "type": "bool"
        }
      ],
      "payable": false,
      "stateMutability": "nonpayable",
      "type": "function"
    },
    {
      "constant": false,
      "inputs": [
        {
          "name": "_carID",
          "type": "uint256"
        },
        {
          "name": "_presence",
          "type": "bool"
        }
      ],
      "name": "editPresence",
      "outputs": [
        {
          "name": "",
          "type": "bool"
        }
      ],
      "payable": false,
      "stateMutability": "nonpayable",
      "type": "function"
    },
    {
      "constant": true,
      "inputs": [
        {
          "name": "_carOwnerID",
          "type": "uint256"
        }
      ],
      "name": "getOwnerCars",
      "outputs": [
        {
          "name": "",
          "type": "uint256[6]"
        }
      ],
      "payable": false,
      "stateMutability": "view",
      "type": "function"
    }
  ],
  "bytecode": "0x60806040526001600255600160035534801561001a57600080fd5b5033600160006101000a81548173ffffffffffffffffffffffffffffffffffffffff021916908373ffffffffffffffffffffffffffffffffffffffff1602179055506112ea8061006b6000396000f3006080604052600436106100c5576000357c0100000000000000000000000000000000000000000000000000000000900463ffffffff1680631cf2c496146100ca578063297a1f5614610121578063356548501461014c57806344865c03146101a357806353a3fc251461020057806354ab5ef2146102695780635699f7a4146102b85780636639016b146103575780636c2310601461038657806384b84e8d146103a657806393ede6c8146103f7578063ed5cdd9014610428578063f7746e361461049c575b600080fd5b3480156100d657600080fd5b506100df61056a565b604051808273ffffffffffffffffffffffffffffffffffffffff1673ffffffffffffffffffffffffffffffffffffffff16815260200191505060405180910390f35b34801561012d57600080fd5b50610136610590565b6040518082815260200191505060405180910390f35b34801561015857600080fd5b5061018d600480360381019080803573ffffffffffffffffffffffffffffffffffffffff169060200190929190505050610596565b6040518082815260200191505060405180910390f35b3480156101af57600080fd5b506101e4600480360381019080803573ffffffffffffffffffffffffffffffffffffffff1690602001909291905050506105ae565b604051808260ff1660ff16815260200191505060405180910390f35b34801561020c57600080fd5b5061022b600480360381019080803590602001909291905050506105ce565b6040518082600660200280838360005b8381101561025657808201518184015260208101905061023b565b5050505090500191505060405180910390f35b34801561027557600080fd5b5061029e600480360381019080803590602001909291908035906020019092919050505061062f565b604051808215151515815260200191505060405180910390f35b3480156102c457600080fd5b506103416004803603810190808035906020019092919080359060200190820180359060200191909192939192939080359060200190820180359060200191909192939192939080359060200190929190803590602001909291908035600019169060200190929190803515159060200190929190505050610738565b6040518082815260200191505060405180910390f35b34801561036357600080fd5b5061036c610956565b604051808215151515815260200191505060405180910390f35b6103a460048036038101908080359060200190929190505050610a3b565b005b3480156103b257600080fd5b506103dd60048036038101908080359060200190929190803515159060200190929190505050610f0b565b604051808215151515815260200191505060405180910390f35b34801561040357600080fd5b5061040c61100d565b604051808260ff1660ff16815260200191505060405180910390f35b34801561043457600080fd5b5061045360048036038101908080359060200190929190505050611012565b604051808373ffffffffffffffffffffffffffffffffffffffff1673ffffffffffffffffffffffffffffffffffffffff1681526020018281526020019250505060405180910390f35b3480156104a857600080fd5b506104c760048036038101908080359060200190929190505050611056565b6040518086815260200180602001858152602001846000191660001916815260200183151515158152602001828103825286818151815260200191508051906020019080838360005b8381101561052b578082015181840152602081019050610510565b50505050905090810190601f1680156105585780820380516001836020036101000a031916815260200191505b50965050505050505060405180910390f35b600160009054906101000a900473ffffffffffffffffffffffffffffffffffffffff1681565b60005481565b60066020528060005260406000206000915090505481565b60076020528060005260406000206000915054906101000a900460ff1681565b6105d66111b6565b60056000838152602001908152602001600020600201600680602002604051908101604052809291908260068015610623576020028201915b81548152602001906001019080831161060f575b50505050509050919050565b60003373ffffffffffffffffffffffffffffffffffffffff16600160009054906101000a900473ffffffffffffffffffffffffffffffffffffffff1673ffffffffffffffffffffffffffffffffffffffff1614151561068d57600080fd5b6064670de0b6b3a76400008115156106a157fe5b0482101580156106b95750670de0b6b3a76400008211155b15156106c457600080fd5b600254831015156106d457600080fd5b8160056000858152602001908152602001600020600101819055507f445654c96a6384ec9889231c6a8971e28dc6b193bf8e80c96685a229ba97e2e98383604051808381526020018281526020019250505060405180910390a16001905092915050565b60008060003373ffffffffffffffffffffffffffffffffffffffff16600160009054906101000a900473ffffffffffffffffffffffffffffffffffffffff1673ffffffffffffffffffffffffffffffffffffffff1614151561079957600080fd5b60025491506004600083815260200190815260200160002090508b81600001819055508a8a8260010191906107cf9291906111d9565b50868160020160008b8b604051602001808383808284378201915050925050506040516020818303038152906040526040518082805190602001908083835b602083101515610833578051825260208201915060208101905060208303925061080e565b6001836020036101000a0380198251168184511680821785525050505050509050019150506040518091039020600019166000191681526020019081526020016000208190555085816003018190555084816004018160001916905550838160050160006101000a81548160ff0219169083151502179055507f36a9b7094f3f24c5e38895943a4508534827a18feefbac68e21302c16bfb440c33600254604051808373ffffffffffffffffffffffffffffffffffffffff1673ffffffffffffffffffffffffffffffffffffffff1681526020018281526020019250505060405180910390a161092d60018361113190919063ffffffff16565b600281905550600080815480929190600101919050555081925050509998505050505050505050565b60003373ffffffffffffffffffffffffffffffffffffffff16600160009054906101000a900473ffffffffffffffffffffffffffffffffffffffff1673ffffffffffffffffffffffffffffffffffffffff161415156109b457600080fd5b600160009054906101000a900473ffffffffffffffffffffffffffffffffffffffff1673ffffffffffffffffffffffffffffffffffffffff166108fc3073ffffffffffffffffffffffffffffffffffffffff16319081150290604051600060405180830381858888f19350505050158015610a33573d6000803e3d6000fd5b506001905090565b60008060008060008060003373ffffffffffffffffffffffffffffffffffffffff16600160009054906101000a900473ffffffffffffffffffffffffffffffffffffffff1673ffffffffffffffffffffffffffffffffffffffff1614151515610aa357600080fd5b600060ff168814151515610ab657600080fd5b60025488101515610ac657600080fd5b600460008981526020019081526020016000209650600115158760050160009054906101000a900460ff161515141515610aff57600080fd5b86600001549550600060ff16600760003373ffffffffffffffffffffffffffffffffffffffff1673ffffffffffffffffffffffffffffffffffffffff16815260200190815260200160002060009054906101000a900460ff1660ff161415610d1957853410151515610b7057600080fd5b60035494506001600760003373ffffffffffffffffffffffffffffffffffffffff1673ffffffffffffffffffffffffffffffffffffffff16815260200190815260200160002060006101000a81548160ff021916908360ff160217905550600560008681526020019081526020016000209350338460000160006101000a81548173ffffffffffffffffffffffffffffffffffffffff021916908373ffffffffffffffffffffffffffffffffffffffff1602179055506020604051908101604052808981525084600201906001610c48929190611259565b5084600660003373ffffffffffffffffffffffffffffffffffffffff1673ffffffffffffffffffffffffffffffffffffffff168152602001908152602001600020819055507f82c107eccc59a568102af5d0389971341f77c5eb90805d74705e23699291fad08533604051808381526020018273ffffffffffffffffffffffffffffffffffffffff1673ffffffffffffffffffffffffffffffffffffffff1681526020019250505060405180910390a1610d0e600160035461113190919063ffffffff16565b600381905550610e5c565b600660003373ffffffffffffffffffffffffffffffffffffffff1673ffffffffffffffffffffffffffffffffffffffff168152602001908152602001600020549450600560008681526020019081526020016000209250600083600101541115610dc357610dc0610db1670de0b6b3a7640000610da386600101548a61114f90919063ffffffff16565b61118290919063ffffffff16565b8761119d90919063ffffffff16565b95505b853410151515610dd257600080fd5b600060ff1683600201600160060360ff16600681101515610def57fe5b0154141515610dfd57600080fd5b600091505b600660ff16821015610e5b57600060ff168360020183600681101515610e2457fe5b0154141515610e3257610e4e565b878360020183600681101515610e4457fe5b0181905550610e5b565b8180600101925050610e02565b5b610e6f863461119d90919063ffffffff16565b90506000811115610ec2573373ffffffffffffffffffffffffffffffffffffffff166108fc829081150290604051600060405180830381858888f19350505050158015610ec0573d6000803e3d6000fd5b505b7f9d6c2ad9bcdd5e3fe3b36e4b9a5358fe1d1f1e90f2e72762674ed9182ce6c2358886604051808381526020018281526020019250505060405180910390a15050505050505050565b6000803373ffffffffffffffffffffffffffffffffffffffff16600160009054906101000a900473ffffffffffffffffffffffffffffffffffffffff1673ffffffffffffffffffffffffffffffffffffffff16141515610f6a57600080fd5b6004600085815260200190815260200160002090508215158160050160009054906101000a900460ff16151514151515610fa357600080fd5b828160050160006101000a81548160ff0219169083151502179055507f0f8c65aa0b76c759a20a58bcee623368d7a444435add45db0117e1112b7498e5848460405180838152602001821515151581526020019250505060405180910390a1600191505092915050565b600681565b60056020528060005260406000206000915090508060000160009054906101000a900473ffffffffffffffffffffffffffffffffffffffff16908060010154905082565b6004602052806000526040600020600091509050806000015490806001018054600181600116156101000203166002900480601f0160208091040260200160405190810160405280929190818152602001828054600181600116156101000203166002900480156111085780601f106110dd57610100808354040283529160200191611108565b820191906000526020600020905b8154815290600101906020018083116110eb57829003601f168201915b5050505050908060030154908060040154908060050160009054906101000a900460ff16905085565b600080828401905083811015151561114557fe5b8091505092915050565b60008082840290506000841480611170575082848281151561116d57fe5b04145b151561117857fe5b8091505092915050565b600080828481151561119057fe5b0490508091505092915050565b60008282111515156111ab57fe5b818303905092915050565b60c060405190810160405280600690602082028038833980820191505090505090565b828054600181600116156101000203166002900490600052602060002090601f016020900481019282601f1061121a57803560ff1916838001178555611248565b82800160010185558215611248579182015b8281111561124757823582559160200191906001019061122c565b5b5090506112559190611299565b5090565b8260068101928215611288579160200282015b8281111561128757825182559160200191906001019061126c565b5b5090506112959190611299565b5090565b6112bb91905b808211156112b757600081600090555060010161129f565b5090565b905600a165627a7a7230582007e7116b60e406397a2a919c258cf8dffe3ef92ee9d676aad198560a76e823560029",
  "source": "pragma solidity ^0.4.21;\n\nlibrary SafeMath {\n\n    function mul(uint256 a, uint256 b) internal pure returns (uint256) {\n        uint256 c = a * b;\n        assert(a == 0 || c / a == b);\n        return c;\n    }\n\n    function div(uint256 a, uint256 b) internal pure returns (uint256) {\n        // assert(b > 0); // Solidity automatically throws when dividing by 0\n        uint256 c = a / b;\n        // assert(a == b * c + a % b); // There is no case in which this doesn't hold\n        return c;\n    }\n\n    function sub(uint256 a, uint256 b) internal pure returns (uint256) {\n        assert(b <= a);\n        return a - b;\n    }\n    function add(uint256 a, uint256 b) internal pure returns (uint256) {\n        uint256 c = a + b;\n        assert(c >= a);\n        return c;\n    }\n\n}\n\ncontract ICarMarket {\n    uint8 constant public MAX_CARS_PER_PERSON = 6;\n    uint8 constant internal NULL_CAR = 0;\n    uint constant internal DECIMAL_MULTIPLIER = 1e18;\n    uint8 constant internal NOT_CAR_OWNER = 0x0;\n    uint8 constant internal CAR_OWNER = 0x1;\n    bool constant internal IN_STOCK = true;\n    bool constant internal OUT_OF_STOCK = false;\n    \n    int public carCount;\n\n    address public carDealer;\n    \n    \n    modifier onlyCarDealer() {\n        require(carDealer == msg.sender);\n        _;\n    }\n\n    function buyCar(uint _carID) payable public;\n    function addCar(\n        uint _price,\n        string _manufacturer,\n        string _model,\n        uint _config,\n        uint _petrolConsumptionPerMile,\n        bytes32 _signature,\n        bool _presence\n    ) external returns (uint);\n    function setCarOwnerDiscount(uint _carOwnerID, uint _discount) external returns (bool);\n    function getOwnerCars(uint _carOwnerID) external view returns (uint[MAX_CARS_PER_PERSON]);\n    function editPresence(uint _carID, bool _presence) external returns (bool);\n\n    event AddCar(address carDealer, uint carID);\n    event NewCarOwner(uint carOwnerID, address carOwnerAddress);\n    event BuyCar(uint carID, uint carOwnerID);\n    event SetDiscount(uint carOwnerID, uint discount);\n    event EditPresence(uint carID, bool presence);\n}\n\ncontract CarMarket is ICarMarket {\n    using SafeMath for uint256;\n\n    uint carID = 1;\n    uint carOwnerID = 1;\n    mapping (uint => Car) public cars;\n    mapping (uint => CarOwner) public carOwners;\n    \n    mapping (address => uint) public carOwner;\n    mapping (address => uint8) public isCarOwner;\n\n    constructor () public {\n        carDealer = msg.sender;\n    }\n\n    struct CarOwner {\n        address addr;\n        uint discount;\n        uint[MAX_CARS_PER_PERSON] carIDs;\n    }\n\n    struct Car {\n        uint price;\n        string manufacturer;\n        mapping (bytes32 => uint) configOfModel;\n        uint petrolConsumptionPerMile;\n        bytes32 signature;\n        bool presence;\n    }\n\n    function buyCar(uint _carID) payable public {\n        require(carDealer != msg.sender);\n        require(_carID != NULL_CAR);\n        require(_carID < carID);\n        Car storage c = cars[_carID];\n        require(c.presence == IN_STOCK);\n        uint _carPrice = c.price;\n        uint _carOwnerID;\n        if (isCarOwner[msg.sender] == NOT_CAR_OWNER) {\n            require(msg.value >= _carPrice);\n            _carOwnerID = carOwnerID;\n            isCarOwner[msg.sender] = CAR_OWNER;\n            CarOwner storage _newCarOwner = carOwners[_carOwnerID];\n            _newCarOwner.addr = msg.sender;\n            _newCarOwner.carIDs = [_carID];\n            carOwner[msg.sender] = _carOwnerID;\n            emit NewCarOwner(_carOwnerID, msg.sender);\n            carOwnerID = carOwnerID.add(0x1);\n        } else {\n            _carOwnerID = carOwner[msg.sender];\n            CarOwner storage _carOwner = carOwners[_carOwnerID];\n            if (_carOwner.discount > 0)\n                _carPrice = _carPrice.sub(_carPrice.mul(_carOwner.discount).div(DECIMAL_MULTIPLIER));\n            require(msg.value >= _carPrice);\n            require(_carOwner.carIDs[MAX_CARS_PER_PERSON-1] == NULL_CAR);\n            for (uint i = 0; i < MAX_CARS_PER_PERSON; i++) {\n                if (_carOwner.carIDs[i] != NULL_CAR)\n                    continue;\n                _carOwner.carIDs[i] = _carID;\n                break;\n            }\n        }\n        uint _remainValue = msg.value.sub(_carPrice);\n        if (_remainValue > 0)\n            msg.sender.transfer(_remainValue);\n        emit BuyCar(_carID, _carOwnerID);\n    }\n\n    function addCar(\n        uint _price,\n        string _manufacturer,\n        string _model,\n        uint _config,\n        uint _petrolConsumptionPerMile,\n        bytes32 _signature,\n        bool _presence\n    ) external onlyCarDealer returns (uint) {\n        uint _carIF = carID;\n        Car storage c = cars[_carIF];\n        c.price = _price;\n        c.manufacturer = _manufacturer;\n        c.configOfModel[keccak256(abi.encodePacked(_model))] = _config;\n        c.petrolConsumptionPerMile = _petrolConsumptionPerMile;\n        c.signature = _signature;\n        c.presence = _presence;\n        emit AddCar(msg.sender, carID);\n        carID = _carIF.add(0x1);\n        carCount++;\n        return _carIF;\n    }\n    \n    function releaseETH() external onlyCarDealer returns (bool) {\n        carDealer.transfer(address(this).balance);\n        return true;\n    }\n\n    function setCarOwnerDiscount(uint _carOwnerID, uint _discount) external onlyCarDealer returns (bool) {\n        require(_discount >= DECIMAL_MULTIPLIER/100 && _discount <= DECIMAL_MULTIPLIER);\n        require(_carOwnerID < carID);\n        carOwners[_carOwnerID].discount = _discount;\n        emit SetDiscount(_carOwnerID, _discount);\n        return true;\n    }\n\n    function editPresence(uint _carID, bool _presence) external onlyCarDealer returns (bool) {\n        Car storage c = cars[_carID];\n        require(c.presence != _presence);\n        c.presence = _presence;\n        emit EditPresence(_carID, _presence);\n        return true;\n    }\n\n    function getOwnerCars(uint _carOwnerID) external view returns (uint[MAX_CARS_PER_PERSON]) {\n        return carOwners[_carOwnerID].carIDs;\n    }\n}\n",
  "sourcePath": "/home/prazd/projects/CarMarketETH/truffle/contracts/CarMarket.sol",
  "compiler": {
    "name": "solc",
    "version": "0.4.24+commit.e67f0147.Emscripten.clang"
  },
  "schemaVersion": "2.0.1",
  "updatedAt": "2018-09-10T10:02:20.995Z"
}